{"abi":[{"type":"constructor","inputs":[{"name":"ipRegistry_","type":"address","internalType":"address"}],"stateMutability":"nonpayable"},{"type":"function","name":"accrued","inputs":[{"name":"","type":"bytes32","internalType":"bytes32"},{"name":"","type":"address","internalType":"address"}],"outputs":[{"name":"","type":"uint256","internalType":"uint256"}],"stateMutability":"view"},{"type":"function","name":"claimRoyalty","inputs":[{"name":"workHash","type":"bytes32","internalType":"bytes32"}],"outputs":[],"stateMutability":"nonpayable"},{"type":"function","name":"depositRoyalty","inputs":[{"name":"workHash","type":"bytes32","internalType":"bytes32"}],"outputs":[],"stateMutability":"payable"},{"type":"function","name":"getAccrued","inputs":[{"name":"workHash","type":"bytes32","internalType":"bytes32"},{"name":"owner","type":"address","internalType":"address"}],"outputs":[{"name":"","type":"uint256","internalType":"uint256"}],"stateMutability":"view"},{"type":"function","name":"vaultBalance","inputs":[{"name":"","type":"bytes32","internalType":"bytes32"}],"outputs":[{"name":"","type":"uint256","internalType":"uint256"}],"stateMutability":"view"},{"type":"event","name":"RoyaltyClaimed","inputs":[{"name":"workHash","type":"bytes32","indexed":true,"internalType":"bytes32"},{"name":"owner","type":"address","indexed":true,"internalType":"address"},{"name":"amount","type":"uint256","indexed":false,"internalType":"uint256"}],"anonymous":false},{"type":"event","name":"RoyaltyDeposited","inputs":[{"name":"workHash","type":"bytes32","indexed":true,"internalType":"bytes32"},{"name":"from","type":"address","indexed":true,"internalType":"address"},{"name":"amount","type":"uint256","indexed":false,"internalType":"uint256"}],"anonymous":false},{"type":"error","name":"NothingToClaim","inputs":[]},{"type":"error","name":"ReentrancyGuardReentrantCall","inputs":[]},{"type":"error","name":"WorkNotFound","inputs":[]}],"bytecode":{"object":"0x60a060405234801561000f575f80fd5b5060405161099338038061099383398101604081905261002e91610063565b60017f9b779b17422d0df92223018b32b4d1fa46e071723d6817e2486d003becc55f00556001600160a01b0316608052610090565b5f60208284031215610073575f80fd5b81516001600160a01b0381168114610089575f80fd5b9392505050565b6080516108eb6100a85f395f61012b01526108eb5ff3fe608060405260043610610049575f3560e01c80632c1ae8461461004d578063abe4b45b14610062578063ba80b968146100aa578063e6d8c740146100c9578063e7aed3b1146100e8575b5f80fd5b61006061005b3660046104f3565b610113565b005b34801561006d575f80fd5b5061009861007c36600461051e565b600160209081525f928352604080842090915290825290205481565b60405190815260200160405180910390f35b3480156100b5575f80fd5b506100986100c436600461051e565b610327565b3480156100d4575f80fd5b506100606100e33660046104f3565b610350565b3480156100f3575f80fd5b506100986101023660046104f3565b5f6020819052908152604090205481565b60405163c64942f360e01b8152600481018290525f907f00000000000000000000000000000000000000000000000000000000000000006001600160a01b03169063c64942f3906024015f60405180830381865afa158015610177573d5f803e3d5ffd5b505050506040513d5f823e601f3d908101601f1916820160405261019e919081019061074d565b90508060c001516101c1576040516246773f60e61b815260040160405180910390fd5b345f805b836040015151811015610284575f612710856060015183815181106101ec576101ec610831565b6020026020010151856101ff9190610859565b6102099190610870565b90508060015f8881526020019081526020015f205f8760400151858151811061023457610234610831565b60200260200101516001600160a01b03166001600160a01b031681526020019081526020015f205f828254610269919061088f565b909155506102799050818461088f565b9250506001016101c5565b5061028f81836108a2565b5f858152600160209081526040808320878301516001600160a01b03168452909152812080549091906102c390849061088f565b90915550505f84815260208190526040812080548492906102e590849061088f565b9091555050604051828152339085907f7831e5b21bd085be9edcd036fc5a973165bdd9834df9875d65c25e62093880ac9060200160405180910390a350505050565b5f8281526001602090815260408083206001600160a01b03851684529091529020545b92915050565b610358610481565b5f81815260016020908152604080832033845290915281205490819003610392576040516312d37ee560e31b815260040160405180910390fd5b5f828152600160209081526040808320338452825280832083905584835290829052812080548392906103c69084906108a2565b90915550506040515f90339083908381818185875af1925050503d805f811461040a576040519150601f19603f3d011682016040523d82523d5f602084013e61040f565b606091505b505090508061041c575f80fd5b604051828152339084907fd4cd1580c0d98cc46961446ec300a7c24236edab341192bfd931c888ebd4e0fa9060200160405180910390a3505061047e60017f9b779b17422d0df92223018b32b4d1fa46e071723d6817e2486d003becc55f0055565b50565b6104896104af565b60027f9b779b17422d0df92223018b32b4d1fa46e071723d6817e2486d003becc55f0055565b7f9b779b17422d0df92223018b32b4d1fa46e071723d6817e2486d003becc55f00546002036104f157604051633ee5aeb560e01b815260040160405180910390fd5b565b5f60208284031215610503575f80fd5b5035919050565b6001600160a01b038116811461047e575f80fd5b5f806040838503121561052f575f80fd5b8235915060208301356105418161050a565b809150509250929050565b634e487b7160e01b5f52604160045260245ffd5b60405160e0810167ffffffffffffffff811182821017156105835761058361054c565b60405290565b604051601f8201601f1916810167ffffffffffffffff811182821017156105b2576105b261054c565b604052919050565b80516105c58161050a565b919050565b5f67ffffffffffffffff8211156105e3576105e361054c565b5060051b60200190565b5f82601f8301126105fc575f80fd5b8151602061061161060c836105ca565b610589565b8083825260208201915060208460051b870101935086841115610632575f80fd5b602086015b8481101561065757805161064a8161050a565b8352918301918301610637565b509695505050505050565b5f82601f830112610671575f80fd5b8151602061068161060c836105ca565b8083825260208201915060208460051b8701019350868411156106a2575f80fd5b602086015b8481101561065757805183529183019183016106a7565b5f82601f8301126106cd575f80fd5b815167ffffffffffffffff8111156106e7576106e761054c565b60206106fb601f8301601f19168201610589565b828152858284870101111561070e575f80fd5b5f5b8381101561072b578581018301518282018401528201610710565b505f928101909101919091529392505050565b805180151581146105c5575f80fd5b5f6020828403121561075d575f80fd5b815167ffffffffffffffff80821115610774575f80fd5b9083019060e08286031215610787575f80fd5b61078f610560565b8251815261079f602084016105ba565b60208201526040830151828111156107b5575f80fd5b6107c1878286016105ed565b6040830152506060830151828111156107d8575f80fd5b6107e487828601610662565b6060830152506080830151608082015260a083015182811115610805575f80fd5b610811878286016106be565b60a08301525061082360c0840161073e565b60c082015295945050505050565b634e487b7160e01b5f52603260045260245ffd5b634e487b7160e01b5f52601160045260245ffd5b808202811582820484141761034a5761034a610845565b5f8261088a57634e487b7160e01b5f52601260045260245ffd5b500490565b8082018082111561034a5761034a610845565b8181038181111561034a5761034a61084556fea26469706673582212208138cf8cdc642afa30c5e33d7d753fd2fe1cbc8122941eaed896675044cd091464736f6c63430008180033","linkReferences":{}},"methodIdentifiers":{"accrued(bytes32,address)":"abe4b45b","claimRoyalty(bytes32)":"e6d8c740","depositRoyalty(bytes32)":"2c1ae846","getAccrued(bytes32,address)":"ba80b968","vaultBalance(bytes32)":"e7aed3b1"},"id":22}