{"abi":[{"type":"constructor","inputs":[{"name":"ipRegistry_","type":"address","internalType":"address"},{"name":"royaltyVault_","type":"address","internalType":"address"}],"stateMutability":"nonpayable"},{"type":"function","name":"createLicenseTier","inputs":[{"name":"workHash","type":"bytes32","internalType":"bytes32"},{"name":"scope","type":"uint8","internalType":"enum LicenseManager.LicenseScope"},{"name":"priceWei","type":"uint256","internalType":"uint256"},{"name":"duration","type":"uint256","internalType":"uint256"}],"outputs":[{"name":"tierId","type":"uint256","internalType":"uint256"}],"stateMutability":"nonpayable"},{"type":"function","name":"getLicense","inputs":[{"name":"licenseId","type":"uint256","internalType":"uint256"}],"outputs":[{"name":"","type":"tuple","internalType":"struct LicenseManager.LicenseRecord","components":[{"name":"tierId","type":"uint256","internalType":"uint256"},{"name":"licensee","type":"address","internalType":"address"},{"name":"purchasedAt","type":"uint256","internalType":"uint256"},{"name":"expiresAt","type":"uint256","internalType":"uint256"},{"name":"isRevoked","type":"bool","internalType":"bool"}]}],"stateMutability":"view"},{"type":"function","name":"getLicensesByLicensee","inputs":[{"name":"licensee","type":"address","internalType":"address"}],"outputs":[{"name":"","type":"uint256[]","internalType":"uint256[]"}],"stateMutability":"view"},{"type":"function","name":"getTier","inputs":[{"name":"tierId","type":"uint256","internalType":"uint256"}],"outputs":[{"name":"","type":"tuple","internalType":"struct LicenseManager.LicenseTier","components":[{"name":"workHash","type":"bytes32","internalType":"bytes32"},{"name":"scope","type":"uint8","internalType":"enum LicenseManager.LicenseScope"},{"name":"priceWei","type":"uint256","internalType":"uint256"},{"name":"duration","type":"uint256","internalType":"uint256"},{"name":"isActive","type":"bool","internalType":"bool"}]}],"stateMutability":"view"},{"type":"function","name":"isLicenseValid","inputs":[{"name":"licenseId","type":"uint256","internalType":"uint256"}],"outputs":[{"name":"","type":"bool","internalType":"bool"}],"stateMutability":"view"},{"type":"function","name":"purchaseLicense","inputs":[{"name":"tierId","type":"uint256","internalType":"uint256"}],"outputs":[{"name":"licenseId","type":"uint256","internalType":"uint256"}],"stateMutability":"payable"},{"type":"function","name":"revokeLicense","inputs":[{"name":"licenseId","type":"uint256","internalType":"uint256"}],"outputs":[],"stateMutability":"nonpayable"},{"type":"function","name":"setDisputeArbitrator","inputs":[{"name":"arbitrator","type":"address","internalType":"address"}],"outputs":[],"stateMutability":"nonpayable"},{"type":"event","name":"LicenseCreated","inputs":[{"name":"tierId","type":"uint256","indexed":true,"internalType":"uint256"},{"name":"workHash","type":"bytes32","indexed":true,"internalType":"bytes32"},{"name":"scope","type":"uint8","indexed":false,"internalType":"enum LicenseManager.LicenseScope"}],"anonymous":false},{"type":"event","name":"LicensePurchased","inputs":[{"name":"licenseId","type":"uint256","indexed":true,"internalType":"uint256"},{"name":"tierId","type":"uint256","indexed":true,"internalType":"uint256"},{"name":"licensee","type":"address","indexed":true,"internalType":"address"}],"anonymous":false},{"type":"event","name":"LicenseRevoked","inputs":[{"name":"licenseId","type":"uint256","indexed":true,"internalType":"uint256"}],"anonymous":false},{"type":"error","name":"AlreadyRevoked","inputs":[]},{"type":"error","name":"ArbitratorAlreadySet","inputs":[]},{"type":"error","name":"ExclusiveLicenseSold","inputs":[]},{"type":"error","name":"InsufficientPayment","inputs":[]},{"type":"error","name":"NotAuthorized","inputs":[]},{"type":"error","name":"NotWorkOwner","inputs":[]},{"type":"error","name":"TierNotActive","inputs":[]},{"type":"error","name":"WorkNotRegistered","inputs":[]}],"bytecode":{"object":"0x60c060405234801561000f575f80fd5b5060405161116738038061116783398101604081905261002e91610060565b6001600160a01b039182166080521660a052610091565b80516001600160a01b038116811461005b575f80fd5b919050565b5f8060408385031215610071575f80fd5b61007a83610045565b915061008860208401610045565b90509250929050565b60805160a0516110ae6100b95f395f61097101525f81816102f10152610a4d01526110ae5ff3fe608060405260043610610079575f3560e01c8063bcc91c221161004c578063bcc91c2214610169578063c8a028a814610195578063df9289be146101b6578063e530d161146101d5575f80fd5b8063439d4b5c1461007d5780634f062c5a1461009e5780639f7fc6d3146100d3578063b2dd121214610102575b5f80fd5b348015610088575f80fd5b5061009c610097366004610c06565b6101f4565b005b3480156100a9575f80fd5b506100bd6100b8366004610c06565b610405565b6040516100ca9190610c51565b60405180910390f35b3480156100de575f80fd5b506100f26100ed366004610c06565b6104c2565b60405190151581526020016100ca565b34801561010d575f80fd5b5061012161011c366004610c06565b61051e565b6040516100ca9190815181526020808301516001600160a01b031690820152604080830151908201526060808301519082015260809182015115159181019190915260a00190565b348015610174575f80fd5b50610188610183366004610caa565b6105c7565b6040516100ca9190610ccc565b6101a86101a3366004610c06565b610630565b6040519081526020016100ca565b3480156101c1575f80fd5b5061009c6101d0366004610caa565b6109df565b3480156101e0575f80fd5b506101a86101ef366004610d0f565b610a2b565b5f6001828154811061020857610208610d4c565b5f9182526020909120600590910201600481015490915060ff16156102405760405163905e710760e01b815260040160405180910390fd5b5f80825f01548154811061025657610256610d4c565b905f5260205f2090600502016040518060a00160405290815f8201548152602001600182015f9054906101000a900460ff16600281111561029957610299610c1d565b60028111156102aa576102aa610c1d565b815260028201546020820152600382015460408083019190915260049283015460ff1615156060909201919091528251905163c64942f360e01b8152918201529091505f907f00000000000000000000000000000000000000000000000000000000000000006001600160a01b03169063c64942f3906024015f60405180830381865afa15801561033d573d5f803e3d5ffd5b505050506040513d5f823e601f3d908101601f191682016040526103649190810190610f61565b60208101516004549192506001600160a01b039081163314915f91161580159061039857506004546001600160a01b031633145b9050811580156103a6575080155b156103c45760405163ea8e4eb560e01b815260040160405180910390fd5b60048501805460ff1916600117905560405186907ff8ecc300d4504a2b49692052f138b7e697df679cf0580522720ce405bd01be55905f90a2505050505050565b6040805160a0810182525f808252602082018190529181018290526060810182905260808101919091525f828154811061044157610441610d4c565b905f5260205f2090600502016040518060a00160405290815f8201548152602001600182015f9054906101000a900460ff16600281111561048457610484610c1d565b600281111561049557610495610c1d565b8152600282015460208201526003820154604082015260049091015460ff16151560609091015292915050565b5f80600183815481106104d7576104d7610d4c565b5f9182526020909120600590910201600481015490915060ff16156104fe57505f92915050565b80600301545f036105125750600192915050565b60030154421092915050565b6105566040518060a001604052805f81526020015f6001600160a01b031681526020015f81526020015f81526020015f151581525090565b6001828154811061056957610569610d4c565b5f9182526020918290206040805160a08101825260059093029091018054835260018101546001600160a01b0316938301939093526002830154908201526003820154606082015260049091015460ff161515608082015292915050565b6001600160a01b0381165f9081526003602090815260409182902080548351818402810184019094528084526060939283018282801561062457602002820191905f5260205f20905b815481526020019060010190808311610610575b50505050509050919050565b5f80548210158061066657505f828154811061064e5761064e610d4c565b5f91825260209091206004600590920201015460ff16155b1561068457604051632015bd1360e11b815260040160405180910390fd5b5f80838154811061069757610697610d4c565b905f5260205f2090600502016040518060a00160405290815f8201548152602001600182015f9054906101000a900460ff1660028111156106da576106da610c1d565b60028111156106eb576106eb610c1d565b815260028201546020820152600382015460408083019190915260049092015460ff16151560609091015281015190915034101561073c5760405163cd1c886760e01b815260040160405180910390fd5b60028160200151600281111561075457610754610c1d565b14801561076e57505f8381526002602052604090205460ff165b1561078c57604051630aa473ed60e01b815260040160405180910390fd5b6002816020015160028111156107a4576107a4610c1d565b036107c2575f838152600260205260409020805460ff191660011790555b5f81606001515f146107e25760608201516107dd9042611045565b6107e4565b5f5b600180546040805160a08101825288815233602080830182815242848601908152606085018981525f60808701818152898b018b558a825296517fb10e2d527612073b26eecdfd717e6a320cf44b4afac2b0732d9fcbe2b7fa0cf660058b029081019190915593517fb10e2d527612073b26eecdfd717e6a320cf44b4afac2b0732d9fcbe2b7fa0cf7850180546001600160a01b0319166001600160a01b0390921691909117905591517fb10e2d527612073b26eecdfd717e6a320cf44b4afac2b0732d9fcbe2b7fa0cf8840155517fb10e2d527612073b26eecdfd717e6a320cf44b4afac2b0732d9fcbe2b7fa0cf983015593517fb10e2d527612073b26eecdfd717e6a320cf44b4afac2b0732d9fcbe2b7fa0cfa909101805460ff191691151591909117905581835260038152838320805496870181558352822090940183905590519196509293509091869186917f011d5de378b023737fafdc766a3de63d9112b15d8b78f062e14c1100989db15d91a4815160405163160d742360e11b81526001600160a01b037f00000000000000000000000000000000000000000000000000000000000000001691632c1ae8469134916109aa9160040190815260200190565b5f604051808303818588803b1580156109c1575f80fd5b505af11580156109d3573d5f803e3d5ffd5b50505050505050919050565b6004546001600160a01b031615610a0957604051630dcce73960e11b815260040160405180910390fd5b600480546001600160a01b0319166001600160a01b0392909216919091179055565b60405163c64942f360e01b8152600481018590525f9081906001600160a01b037f0000000000000000000000000000000000000000000000000000000000000000169063c64942f3906024015f60405180830381865afa158015610a91573d5f803e3d5ffd5b505050506040513d5f823e601f3d908101601f19168201604052610ab89190810190610f61565b90508060c00151610adc57604051630151df3160e01b815260040160405180910390fd5b60208101516001600160a01b03163314610b095760405163f5ca106160e01b815260040160405180910390fd5b5f8054905091505f6040518060a00160405280888152602001876002811115610b3457610b34610c1d565b815260208082018890526040820187905260016060909201829052835480830185555f94855293819020835160059095020193845582015183820180549394939192909160ff191690836002811115610b8f57610b8f610c1d565b02179055506040828101516002830155606083015160038301556080909201516004909101805460ff191691151591909117905551869083907f2c7ed1bc6788246d090f98fb56c24716fc54fe55b4b4f7a42180626d28dfc25890610bf590899061106a565b60405180910390a350949350505050565b5f60208284031215610c16575f80fd5b5035919050565b634e487b7160e01b5f52602160045260245ffd5b60038110610c4d57634e487b7160e01b5f52602160045260245ffd5b9052565b8151815260208083015160a0830191610c6c90840182610c31565b50604083015160408301526060830151606083015260808301511515608083015292915050565b6001600160a01b0381168114610ca7575f80fd5b50565b5f60208284031215610cba575f80fd5b8135610cc581610c93565b9392505050565b602080825282518282018190525f9190848201906040850190845b81811015610d0357835183529284019291840191600101610ce7565b50909695505050505050565b5f805f8060808587031215610d22575f80fd5b84359350602085013560038110610d37575f80fd5b93969395505050506040820135916060013590565b634e487b7160e01b5f52603260045260245ffd5b634e487b7160e01b5f52604160045260245ffd5b60405160e0810167ffffffffffffffff81118282101715610d9757610d97610d60565b60405290565b604051601f8201601f1916810167ffffffffffffffff81118282101715610dc657610dc6610d60565b604052919050565b8051610dd981610c93565b919050565b5f67ffffffffffffffff821115610df757610df7610d60565b5060051b60200190565b5f82601f830112610e10575f80fd5b81516020610e25610e2083610dde565b610d9d565b8083825260208201915060208460051b870101935086841115610e46575f80fd5b602086015b84811015610e6b578051610e5e81610c93565b8352918301918301610e4b565b509695505050505050565b5f82601f830112610e85575f80fd5b81516020610e95610e2083610dde565b8083825260208201915060208460051b870101935086841115610eb6575f80fd5b602086015b84811015610e6b5780518352918301918301610ebb565b5f82601f830112610ee1575f80fd5b815167ffffffffffffffff811115610efb57610efb610d60565b6020610f0f601f8301601f19168201610d9d565b8281528582848701011115610f22575f80fd5b5f5b83811015610f3f578581018301518282018401528201610f24565b505f928101909101919091529392505050565b80518015158114610dd9575f80fd5b5f60208284031215610f71575f80fd5b815167ffffffffffffffff80821115610f88575f80fd5b9083019060e08286031215610f9b575f80fd5b610fa3610d74565b82518152610fb360208401610dce565b6020820152604083015182811115610fc9575f80fd5b610fd587828601610e01565b604083015250606083015182811115610fec575f80fd5b610ff887828601610e76565b6060830152506080830151608082015260a083015182811115611019575f80fd5b61102587828601610ed2565b60a08301525061103760c08401610f52565b60c082015295945050505050565b8082018082111561106457634e487b7160e01b5f52601160045260245ffd5b92915050565b602081016110648284610c3156fea264697066735822122006ae081f305e8a5b0a5de39ca083bb7d41f75862a79a79ff632d335535e3045a64736f6c63430008180033","linkReferences":{}},"methodIdentifiers":{"createLicenseTier(bytes32,uint8,uint256,uint256)":"e530d161","getLicense(uint256)":"b2dd1212","getLicensesByLicensee(address)":"bcc91c22","getTier(uint256)":"4f062c5a","isLicenseValid(uint256)":"9f7fc6d3","purchaseLicense(uint256)":"c8a028a8","revokeLicense(uint256)":"439d4b5c","setDisputeArbitrator(address)":"df9289be"},"id":25}