{"abi":[{"type":"function","name":"addCoOwner","inputs":[{"name":"fileHash","type":"bytes32","internalType":"bytes32"},{"name":"coOwner","type":"address","internalType":"address"},{"name":"splitBps","type":"uint256","internalType":"uint256"}],"outputs":[],"stateMutability":"nonpayable"},{"type":"function","name":"getWorksByOwner","inputs":[{"name":"owner","type":"address","internalType":"address"}],"outputs":[{"name":"","type":"bytes32[]","internalType":"bytes32[]"}],"stateMutability":"view"},{"type":"function","name":"registerWork","inputs":[{"name":"fileHash","type":"bytes32","internalType":"bytes32"},{"name":"metadataURI","type":"string","internalType":"string"}],"outputs":[],"stateMutability":"nonpayable"},{"type":"function","name":"transferOwnership","inputs":[{"name":"fileHash","type":"bytes32","internalType":"bytes32"},{"name":"newOwner","type":"address","internalType":"address"}],"outputs":[],"stateMutability":"nonpayable"},{"type":"function","name":"verifyWork","inputs":[{"name":"fileHash","type":"bytes32","internalType":"bytes32"}],"outputs":[{"name":"","type":"tuple","internalType":"struct IPRegistry.WorkRecord","components":[{"name":"fileHash","type":"bytes32","internalType":"bytes32"},{"name":"owner","type":"address","internalType":"address"},{"name":"coOwners","type":"address[]","internalType":"address[]"},{"name":"splits","type":"uint256[]","internalType":"uint256[]"},{"name":"registeredAt","type":"uint256","internalType":"uint256"},{"name":"metadataURI","type":"string","internalType":"string"},{"name":"exists","type":"bool","internalType":"bool"}]}],"stateMutability":"view"},{"type":"event","name":"CoOwnerAdded","inputs":[{"name":"fileHash","type":"bytes32","indexed":true,"internalType":"bytes32"},{"name":"coOwner","type":"address","indexed":false,"internalType":"address"},{"name":"splitBps","type":"uint256","indexed":false,"internalType":"uint256"}],"anonymous":false},{"type":"event","name":"OwnershipTransferred","inputs":[{"name":"fileHash","type":"bytes32","indexed":true,"internalType":"bytes32"},{"name":"from","type":"address","indexed":true,"internalType":"address"},{"name":"to","type":"address","indexed":true,"internalType":"address"}],"anonymous":false},{"type":"event","name":"WorkRegistered","inputs":[{"name":"fileHash","type":"bytes32","indexed":true,"internalType":"bytes32"},{"name":"owner","type":"address","indexed":true,"internalType":"address"},{"name":"metadataURI","type":"string","indexed":false,"internalType":"string"}],"anonymous":false},{"type":"error","name":"AlreadyRegistered","inputs":[]},{"type":"error","name":"InvalidHash","inputs":[]},{"type":"error","name":"InvalidSplit","inputs":[]},{"type":"error","name":"NotOwner","inputs":[]}],"bytecode":{"object":"0x608060405234801561000f575f80fd5b50610c038061001d5f395ff3fe608060405234801561000f575f80fd5b5060043610610055575f3560e01c80638ea2177414610059578063b4989e031461006e578063c64942f314610081578063ef5d6bbb146100aa578063f8b9c007146100bd575b5f80fd5b61006c61006736600461074c565b6100dd565b005b61006c61007c36600461077e565b61024a565b61009461008f3660046107f3565b610346565b6040516100a19190610887565b60405180910390f35b61006c6100b8366004610958565b610520565b6100d06100cb366004610982565b6106c8565b6040516100a191906109a2565b6001600160a01b038216610104576040516330cd747160e01b815260040160405180910390fd5b5f838152602081905260409020600681015460ff161580610132575060018101546001600160a01b03163314155b15610150576040516330cd747160e01b815260040160405180910390fd5b5f805b600383015481101561019257826003018181548110610174576101746109e5565b905f5260205f200154826101889190610a0d565b9150600101610153565b506127106101a08483610a0d565b11156101bf5760405163bcd55b0f60e01b815260040160405180910390fd5b600282018054600180820183555f928352602080842090920180546001600160a01b0319166001600160a01b0389169081179091556003860180549283018155845292829020018590556040805192835290820185905286917fa881238a0eb2c2939bb58ac41301d9dd5254051be4d21bd9ddcd436a60e2a26c910160405180910390a25050505050565b82610267576040516257c03760e51b815260040160405180910390fd5b5f8381526020819052604090206006015460ff161561029957604051630ea075bf60e21b815260040160405180910390fd5b5f8381526020819052604090208381556001810180546001600160a01b03191633179055426004820155600581016102d2838583610abe565b5060068101805460ff19166001908117909155335f818152602083815260408083208054958601815583529120909201869055905185907f7302e46e4742a76b492586d0496cd61beb85ff13a6ffde5611fed7a2684d1010906103389087908790610b78565b60405180910390a350505050565b6103906040518060e001604052805f80191681526020015f6001600160a01b0316815260200160608152602001606081526020015f8152602001606081526020015f151581525090565b5f8281526020818152604091829020825160e0810184528154815260018201546001600160a01b0316818401526002820180548551818602810186018752818152929593949386019383018282801561041057602002820191905f5260205f20905b81546001600160a01b031681526001909101906020018083116103f2575b505050505081526020016003820180548060200260200160405190810160405280929190818152602001828054801561046657602002820191905f5260205f20905b815481526020019060010190808311610452575b505050505081526020016004820154815260200160058201805461048990610a3a565b80601f01602080910402602001604051908101604052809291908181526020018280546104b590610a3a565b80156105005780601f106104d757610100808354040283529160200191610500565b820191905f5260205f20905b8154815290600101906020018083116104e357829003601f168201915b50505091835250506006919091015460ff16151560209091015292915050565b6001600160a01b038116610547576040516330cd747160e01b815260040160405180910390fd5b5f828152602081905260409020600681015460ff161580610575575060018101546001600160a01b03163314155b15610593576040516330cd747160e01b815260040160405180910390fd5b600180820180546001600160a01b038581166001600160a01b0319831681179093555f9283526020848152604080852080549687018155855290842090940187905516808252918120905b815481101561067f57858282815481106105fa576105fa6109e5565b905f5260205f20015403610677578154829061061890600190610ba6565b81548110610628576106286109e5565b905f5260205f200154828281548110610643576106436109e5565b905f5260205f2001819055508180548061065f5761065f610bb9565b600190038181905f5260205f20015f9055905561067f565b6001016105de565b50836001600160a01b0316826001600160a01b0316867f0b659dccc8eb950324170e8d9598af5ee04ee070883eb28651a96788721fbf8360405160405180910390a45050505050565b6001600160a01b0381165f9081526001602090815260409182902080548351818402810184019094528084526060939283018282801561072557602002820191905f5260205f20905b815481526020019060010190808311610711575b50505050509050919050565b80356001600160a01b0381168114610747575f80fd5b919050565b5f805f6060848603121561075e575f80fd5b8335925061076e60208501610731565b9150604084013590509250925092565b5f805f60408486031215610790575f80fd5b83359250602084013567ffffffffffffffff808211156107ae575f80fd5b818601915086601f8301126107c1575f80fd5b8135818111156107cf575f80fd5b8760208285010111156107e0575f80fd5b6020830194508093505050509250925092565b5f60208284031215610803575f80fd5b5035919050565b5f815180845260208085019450602084015f5b838110156108395781518752958201959082019060010161081d565b509495945050505050565b5f81518084525f5b818110156108685760208185018101518683018201520161084c565b505f602082860101526020601f19601f83011685010191505092915050565b6020808252825182820152828101516001600160a01b0390811660408085019190915284015160e06060850152805161010085018190525f93929183019184916101208701905b808410156108f0578451831682529385019360019390930192908501906108ce565b5060608801519450601f19935083878203016080880152610911818661080a565b9450505050608085015160a085015260a0850151818584030160c08601526109398382610844565b9250505060c084015161095060e085018215159052565b509392505050565b5f8060408385031215610969575f80fd5b8235915061097960208401610731565b90509250929050565b5f60208284031215610992575f80fd5b61099b82610731565b9392505050565b602080825282518282018190525f9190848201906040850190845b818110156109d9578351835292840192918401916001016109bd565b50909695505050505050565b634e487b7160e01b5f52603260045260245ffd5b634e487b7160e01b5f52601160045260245ffd5b80820180821115610a2057610a206109f9565b92915050565b634e487b7160e01b5f52604160045260245ffd5b600181811c90821680610a4e57607f821691505b602082108103610a6c57634e487b7160e01b5f52602260045260245ffd5b50919050565b601f821115610ab957805f5260205f20601f840160051c81016020851015610a975750805b601f840160051c820191505b81811015610ab6575f8155600101610aa3565b50505b505050565b67ffffffffffffffff831115610ad657610ad6610a26565b610aea83610ae48354610a3a565b83610a72565b5f601f841160018114610b1b575f8515610b045750838201355b5f19600387901b1c1916600186901b178355610ab6565b5f83815260208120601f198716915b82811015610b4a5786850135825560209485019460019092019101610b2a565b5086821015610b66575f1960f88860031b161c19848701351681555b505060018560011b0183555050505050565b60208152816020820152818360408301375f818301604090810191909152601f909201601f19160101919050565b81810381811115610a2057610a206109f9565b634e487b7160e01b5f52603160045260245ffdfea26469706673582212200f8d8b914e9a7f0a2d8929215bcf85408f0c2c84347e3d348f8491f688912d4e64736f6c63430008180033","linkReferences":{}},"methodIdentifiers":{"addCoOwner(bytes32,address,uint256)":"8ea21774","getWorksByOwner(address)":"f8b9c007","registerWork(bytes32,string)":"b4989e03","transferOwnership(bytes32,address)":"ef5d6bbb","verifyWork(bytes32)":"c64942f3"},"id":19}