{"abi":[{"type":"constructor","inputs":[{"name":"licenseManager_","type":"address","internalType":"address"}],"stateMutability":"nonpayable"},{"type":"function","name":"EVIDENCE_PERIOD","inputs":[],"outputs":[{"name":"","type":"uint256","internalType":"uint256"}],"stateMutability":"view"},{"type":"function","name":"TIMELOCK","inputs":[],"outputs":[{"name":"","type":"uint256","internalType":"uint256"}],"stateMutability":"view"},{"type":"function","name":"arbiter","inputs":[],"outputs":[{"name":"","type":"address","internalType":"address"}],"stateMutability":"view"},{"type":"function","name":"executeResolution","inputs":[{"name":"disputeId","type":"uint256","internalType":"uint256"}],"outputs":[],"stateMutability":"nonpayable"},{"type":"function","name":"getDispute","inputs":[{"name":"disputeId","type":"uint256","internalType":"uint256"}],"outputs":[{"name":"","type":"tuple","internalType":"struct DisputeArbitrator.Dispute","components":[{"name":"licenseId","type":"uint256","internalType":"uint256"},{"name":"plaintiff","type":"address","internalType":"address"},{"name":"defendant","type":"address","internalType":"address"},{"name":"plaintiffEvidenceCID","type":"string","internalType":"string"},{"name":"defendantEvidenceCID","type":"string","internalType":"string"},{"name":"status","type":"uint8","internalType":"enum DisputeArbitrator.DisputeStatus"},{"name":"ruledForPlaintiff","type":"bool","internalType":"bool"},{"name":"raisedAt","type":"uint256","internalType":"uint256"},{"name":"resolvedAt","type":"uint256","internalType":"uint256"}]}],"stateMutability":"view"},{"type":"function","name":"raiseDispute","inputs":[{"name":"licenseId","type":"uint256","internalType":"uint256"}],"outputs":[{"name":"disputeId","type":"uint256","internalType":"uint256"}],"stateMutability":"nonpayable"},{"type":"function","name":"resolveDispute","inputs":[{"name":"disputeId","type":"uint256","internalType":"uint256"},{"name":"ruleForPlaintiff","type":"bool","internalType":"bool"}],"outputs":[],"stateMutability":"nonpayable"},{"type":"function","name":"submitEvidence","inputs":[{"name":"disputeId","type":"uint256","internalType":"uint256"},{"name":"ipfsCID","type":"string","internalType":"string"}],"outputs":[],"stateMutability":"nonpayable"},{"type":"function","name":"transferArbiter","inputs":[{"name":"newArbiter","type":"address","internalType":"address"}],"outputs":[],"stateMutability":"nonpayable"},{"type":"event","name":"ArbiterTransferred","inputs":[{"name":"oldArbiter","type":"address","indexed":true,"internalType":"address"},{"name":"newArbiter","type":"address","indexed":true,"internalType":"address"}],"anonymous":false},{"type":"event","name":"DisputeRaised","inputs":[{"name":"disputeId","type":"uint256","indexed":true,"internalType":"uint256"},{"name":"licenseId","type":"uint256","indexed":true,"internalType":"uint256"},{"name":"plaintiff","type":"address","indexed":false,"internalType":"address"}],"anonymous":false},{"type":"event","name":"DisputeResolved","inputs":[{"name":"disputeId","type":"uint256","indexed":true,"internalType":"uint256"},{"name":"ruledForPlaintiff","type":"bool","indexed":false,"internalType":"bool"}],"anonymous":false},{"type":"event","name":"EvidenceSubmitted","inputs":[{"name":"disputeId","type":"uint256","indexed":true,"internalType":"uint256"},{"name":"submitter","type":"address","indexed":false,"internalType":"address"},{"name":"ipfsCID","type":"string","indexed":false,"internalType":"string"}],"anonymous":false},{"type":"event","name":"ResolutionExecuted","inputs":[{"name":"disputeId","type":"uint256","indexed":true,"internalType":"uint256"}],"anonymous":false},{"type":"error","name":"AlreadyResolved","inputs":[]},{"type":"error","name":"DisputeNotResolved","inputs":[]},{"type":"error","name":"EvidencePeriodActive","inputs":[]},{"type":"error","name":"NotArbiter","inputs":[]},{"type":"error","name":"NotPartyToDispute","inputs":[]},{"type":"error","name":"TimelockNotExpired","inputs":[]}],"bytecode":{"object":"0x60a060405234801561000f575f80fd5b50604051610ed1380380610ed183398101604081905261002e91610050565b6001600160a01b03166080525f80546001600160a01b0319163317905561007d565b5f60208284031215610060575f80fd5b81516001600160a01b0381168114610076575f80fd5b9392505050565b608051610e3c6100955f395f6103a00152610e3c5ff3fe608060405234801561000f575f80fd5b5060043610610090575f3560e01c8063a5c1674e11610063578063a5c1674e146100ec578063a6a7f0eb146100ff578063e3a96cbd14610112578063f936a14c14610132578063fe25e00a1461013c575f80fd5b806334b25ee2146100945780637aadef8b146100a95780637cbf3b6b146100c657806385687423146100d9575b5f80fd5b6100a76100a2366004610965565b610166565b005b6100b36202a30081565b6040519081526020015b60405180910390f35b6100a76100d4366004610997565b6102ab565b6100a76100e73660046109ae565b610404565b6100b36100fa366004610997565b61047d565b6100a761010d3660046109db565b610664565b610125610120366004610997565b61073e565b6040516100bd9190610ac7565b6100b36203f48081565b5f5461014e906001600160a01b031681565b6040516001600160a01b0390911681526020016100bd565b5f546001600160a01b031633146101905760405163665b32d360e11b815260040160405180910390fd5b5f600183815481106101a4576101a4610b80565b5f918252602090912060089091020190506002600582015460ff1660038111156101d0576101d0610a93565b14806101f457506003600582015460ff1660038111156101f2576101f2610a93565b145b15610212576040516336ab81e160e11b815260040160405180910390fd5b6203f48081600601546102259190610b94565b421015610245576040516338b23f9760e01b815260040160405180910390fd5b60058101805460ff1984151561010081029190911661ffff199092169190911760021790915542600783015560405190815283907f5a87909bff68caaaaf0b3fd9c74eeccc928832f879315e5c6fb7a73612f26c0c9060200160405180910390a2505050565b5f600182815481106102bf576102bf610b80565b5f918252602090912060089091020190506002600582015460ff1660038111156102eb576102eb610a93565b146103095760405163453ee4f760e11b815260040160405180910390fd5b6202a300816007015461031c9190610b94565b42101561033c5760405163621e25c360e01b815260040160405180910390fd5b60058101805460ff1916600317905560405182907f64d5c3ee78fce79320e84b8482a7d61aa14c7283b692e8abf33cfd3ffe623589905f90a26005810154610100900460ff16156104005780546040516310e752d760e21b815260048101919091527f00000000000000000000000000000000000000000000000000000000000000006001600160a01b03169063439d4b5c906024015f604051808303815f87803b1580156103e9575f80fd5b505af11580156103fb573d5f803e3d5ffd5b505050505b5050565b5f546001600160a01b0316331461042e5760405163665b32d360e11b815260040160405180910390fd5b5f80546001600160a01b038381166001600160a01b0319831681178455604051919092169283917fd3d564e96072a777be19caa4a0886092c8fe3ab390140b6406cbc8a8181dea6f9190a35050565b6001805460408051610120810182528481523360208083019182525f83850181815285518084018752828152606086019081528651938401909652818352608085019290925260a0840187905260c084018190524260e085015261010084018190528587018755959095528151600885027fb10e2d527612073b26eecdfd717e6a320cf44b4afac2b0732d9fcbe2b7fa0cf6810191825591517fb10e2d527612073b26eecdfd717e6a320cf44b4afac2b0732d9fcbe2b7fa0cf7830180546001600160a01b03199081166001600160a01b039384161790915596517fb10e2d527612073b26eecdfd717e6a320cf44b4afac2b0732d9fcbe2b7fa0cf88401805490981691161790955591519293909290917fb10e2d527612073b26eecdfd717e6a320cf44b4afac2b0732d9fcbe2b7fa0cf901906105bb9082610c51565b50608082015160048201906105d09082610c51565b5060a082015160058201805460ff191660018360038111156105f4576105f4610a93565b021790555060c082015160058201805461ff001916610100921515830217905560e0830151600683015590910151600790910155604051338152829082907f83201991c75b30e493678d0543bdbd02d6a194a5a0dda31490a5fe09e9f0a2209060200160405180910390a3919050565b5f6001848154811061067857610678610b80565b5f918252602090912060089091020190506001600582015460ff1660038111156106a4576106a4610a93565b146106c2576040516336ab81e160e11b815260040160405180910390fd5b60018101546001600160a01b031633036106eb57600381016106e5838583610d0d565b506106fc565b600481016106fa838583610d0d565b505b837fa49e7517d2b5714f7812f718444c5a2931d4fc670ed2d2aa2426ff2f42c5b44d33858560405161073093929190610dc7565b60405180910390a250505050565b60408051610120810182525f808252602082018190529181018290526060808201819052608082015260a0810182905260c0810182905260e081018290526101008101919091526001828154811061079857610798610b80565b5f918252602091829020604080516101208101825260089093029091018054835260018101546001600160a01b03908116948401949094526002810154909316908201526003820180549192916060840191906107f490610bcd565b80601f016020809104026020016040519081016040528092919081815260200182805461082090610bcd565b801561086b5780601f106108425761010080835404028352916020019161086b565b820191905f5260205f20905b81548152906001019060200180831161084e57829003601f168201915b5050505050815260200160048201805461088490610bcd565b80601f01602080910402602001604051908101604052809291908181526020018280546108b090610bcd565b80156108fb5780601f106108d2576101008083540402835291602001916108fb565b820191905f5260205f20905b8154815290600101906020018083116108de57829003601f168201915b5050509183525050600582015460209091019060ff16600381111561092257610922610a93565b600381111561093357610933610a93565b81526005820154610100900460ff16151560208201526006820154604082015260079091015460609091015292915050565b5f8060408385031215610976575f80fd5b823591506020830135801515811461098c575f80fd5b809150509250929050565b5f602082840312156109a7575f80fd5b5035919050565b5f602082840312156109be575f80fd5b81356001600160a01b03811681146109d4575f80fd5b9392505050565b5f805f604084860312156109ed575f80fd5b83359250602084013567ffffffffffffffff80821115610a0b575f80fd5b818601915086601f830112610a1e575f80fd5b813581811115610a2c575f80fd5b876020828501011115610a3d575f80fd5b6020830194508093505050509250925092565b5f81518084525f5b81811015610a7457602081850181015186830182015201610a58565b505f602082860101526020601f19601f83011685010191505092915050565b634e487b7160e01b5f52602160045260245ffd5b60048110610ac357634e487b7160e01b5f52602160045260245ffd5b9052565b60208152815160208201525f6020830151610aed60408401826001600160a01b03169052565b5060408301516001600160a01b0381166060840152506060830151610120806080850152610b1f610140850183610a50565b91506080850151601f198584030160a0860152610b3c8382610a50565b92505060a0850151610b5160c0860182610aa7565b5060c085015180151560e08601525060e085015161010085810191909152909401519390920192909252919050565b634e487b7160e01b5f52603260045260245ffd5b80820180821115610bb357634e487b7160e01b5f52601160045260245ffd5b92915050565b634e487b7160e01b5f52604160045260245ffd5b600181811c90821680610be157607f821691505b602082108103610bff57634e487b7160e01b5f52602260045260245ffd5b50919050565b601f821115610c4c57805f5260205f20601f840160051c81016020851015610c2a5750805b601f840160051c820191505b81811015610c49575f8155600101610c36565b50505b505050565b815167ffffffffffffffff811115610c6b57610c6b610bb9565b610c7f81610c798454610bcd565b84610c05565b602080601f831160018114610cb2575f8415610c9b5750858301515b5f19600386901b1c1916600185901b1785556103fb565b5f85815260208120601f198616915b82811015610ce057888601518255948401946001909101908401610cc1565b5085821015610cfd57878501515f19600388901b60f8161c191681555b5050505050600190811b01905550565b67ffffffffffffffff831115610d2557610d25610bb9565b610d3983610d338354610bcd565b83610c05565b5f601f841160018114610d6a575f8515610d535750838201355b5f19600387901b1c1916600186901b178355610c49565b5f83815260208120601f198716915b82811015610d995786850135825560209485019460019092019101610d79565b5086821015610db5575f1960f88860031b161c19848701351681555b505060018560011b0183555050505050565b6001600160a01b03841681526040602082018190528101829052818360608301375f818301606090810191909152601f909201601f191601019291505056fea2646970667358221220c33927c3f4b3ddf3f7a6f5457209c0778e39c87cfff9c7135c638b87715d064164736f6c63430008180033","linkReferences":{}},"methodIdentifiers":{"EVIDENCE_PERIOD()":"f936a14c","TIMELOCK()":"7aadef8b","arbiter()":"fe25e00a","executeResolution(uint256)":"7cbf3b6b","getDispute(uint256)":"e3a96cbd","raiseDispute(uint256)":"a5c1674e","resolveDispute(uint256,bool)":"34b25ee2","submitEvidence(uint256,string)":"a6a7f0eb","transferArbiter(address)":"85687423"},"id":21}